{
  "_format": "hh3-artifact-1",
  "contractName": "EscrowManager",
  "sourceName": "contracts/EscrowManager.sol",
  "abi": [
    {
      "inputs": [
        {
          "internalType": "address",
          "name": "initialOwner",
          "type": "address"
        },
        {
          "internalType": "address",
          "name": "_buildingRegistry",
          "type": "address"
        },
        {
          "internalType": "address",
          "name": "_usdcToken",
          "type": "address"
        }
      ],
      "stateMutability": "nonpayable",
      "type": "constructor"
    },
    {
      "inputs": [
        {
          "internalType": "address",
          "name": "owner",
          "type": "address"
        }
      ],
      "name": "OwnableInvalidOwner",
      "type": "error"
    },
    {
      "inputs": [
        {
          "internalType": "address",
          "name": "account",
          "type": "address"
        }
      ],
      "name": "OwnableUnauthorizedAccount",
      "type": "error"
    },
    {
      "inputs": [],
      "name": "ReentrancyGuardReentrantCall",
      "type": "error"
    },
    {
      "anonymous": false,
      "inputs": [
        {
          "indexed": true,
          "internalType": "uint256",
          "name": "buildingId",
          "type": "uint256"
        },
        {
          "indexed": true,
          "internalType": "address",
          "name": "developer",
          "type": "address"
        },
        {
          "indexed": false,
          "internalType": "uint8",
          "name": "totalMilestones",
          "type": "uint8"
        }
      ],
      "name": "EscrowConfigured",
      "type": "event"
    },
    {
      "anonymous": false,
      "inputs": [
        {
          "indexed": true,
          "internalType": "uint256",
          "name": "buildingId",
          "type": "uint256"
        },
        {
          "indexed": true,
          "internalType": "address",
          "name": "depositor",
          "type": "address"
        },
        {
          "indexed": false,
          "internalType": "uint256",
          "name": "amount",
          "type": "uint256"
        }
      ],
      "name": "FundsDeposited",
      "type": "event"
    },
    {
      "anonymous": false,
      "inputs": [
        {
          "indexed": true,
          "internalType": "uint256",
          "name": "buildingId",
          "type": "uint256"
        },
        {
          "indexed": true,
          "internalType": "uint8",
          "name": "milestone",
          "type": "uint8"
        },
        {
          "indexed": true,
          "internalType": "address",
          "name": "developer",
          "type": "address"
        },
        {
          "indexed": false,
          "internalType": "uint256",
          "name": "amount",
          "type": "uint256"
        }
      ],
      "name": "FundsReleased",
      "type": "event"
    },
    {
      "anonymous": false,
      "inputs": [
        {
          "indexed": true,
          "internalType": "address",
          "name": "previousOwner",
          "type": "address"
        },
        {
          "indexed": true,
          "internalType": "address",
          "name": "newOwner",
          "type": "address"
        }
      ],
      "name": "OwnershipTransferred",
      "type": "event"
    },
    {
      "inputs": [],
      "name": "buildingRegistry",
      "outputs": [
        {
          "internalType": "contract IBuildingRegistryForFactory",
          "name": "",
          "type": "address"
        }
      ],
      "stateMutability": "view",
      "type": "function"
    },
    {
      "inputs": [
        {
          "internalType": "uint256",
          "name": "buildingId",
          "type": "uint256"
        },
        {
          "internalType": "address",
          "name": "developer",
          "type": "address"
        },
        {
          "internalType": "uint256[]",
          "name": "milestoneAmounts",
          "type": "uint256[]"
        }
      ],
      "name": "configureEscrow",
      "outputs": [],
      "stateMutability": "nonpayable",
      "type": "function"
    },
    {
      "inputs": [
        {
          "internalType": "uint256",
          "name": "buildingId",
          "type": "uint256"
        },
        {
          "internalType": "uint256",
          "name": "amount",
          "type": "uint256"
        }
      ],
      "name": "depositFunds",
      "outputs": [],
      "stateMutability": "nonpayable",
      "type": "function"
    },
    {
      "inputs": [
        {
          "internalType": "uint256",
          "name": "amount",
          "type": "uint256"
        }
      ],
      "name": "emergencyWithdraw",
      "outputs": [],
      "stateMutability": "nonpayable",
      "type": "function"
    },
    {
      "inputs": [
        {
          "internalType": "uint256",
          "name": "",
          "type": "uint256"
        }
      ],
      "name": "escrows",
      "outputs": [
        {
          "internalType": "uint256",
          "name": "buildingId",
          "type": "uint256"
        },
        {
          "internalType": "address",
          "name": "developer",
          "type": "address"
        },
        {
          "internalType": "uint256",
          "name": "totalEscrowed",
          "type": "uint256"
        },
        {
          "internalType": "uint256",
          "name": "totalReleased",
          "type": "uint256"
        },
        {
          "internalType": "uint8",
          "name": "totalMilestones",
          "type": "uint8"
        },
        {
          "internalType": "uint8",
          "name": "lastReleasedMilestone",
          "type": "uint8"
        },
        {
          "internalType": "bool",
          "name": "exists",
          "type": "bool"
        }
      ],
      "stateMutability": "view",
      "type": "function"
    },
    {
      "inputs": [
        {
          "internalType": "uint256",
          "name": "buildingId",
          "type": "uint256"
        }
      ],
      "name": "getEscrowInfo",
      "outputs": [
        {
          "internalType": "uint256",
          "name": "totalEscrowed",
          "type": "uint256"
        },
        {
          "internalType": "uint256",
          "name": "totalReleased",
          "type": "uint256"
        },
        {
          "internalType": "uint8",
          "name": "lastReleasedMilestone",
          "type": "uint8"
        },
        {
          "internalType": "uint8",
          "name": "totalMilestones",
          "type": "uint8"
        },
        {
          "internalType": "address",
          "name": "developer",
          "type": "address"
        }
      ],
      "stateMutability": "view",
      "type": "function"
    },
    {
      "inputs": [
        {
          "internalType": "uint256",
          "name": "buildingId",
          "type": "uint256"
        },
        {
          "internalType": "uint8",
          "name": "milestone",
          "type": "uint8"
        }
      ],
      "name": "getMilestoneReleaseAmount",
      "outputs": [
        {
          "internalType": "uint256",
          "name": "",
          "type": "uint256"
        }
      ],
      "stateMutability": "view",
      "type": "function"
    },
    {
      "inputs": [
        {
          "internalType": "uint256",
          "name": "buildingId",
          "type": "uint256"
        }
      ],
      "name": "getPendingReleaseAmount",
      "outputs": [
        {
          "internalType": "uint256",
          "name": "",
          "type": "uint256"
        }
      ],
      "stateMutability": "view",
      "type": "function"
    },
    {
      "inputs": [],
      "name": "owner",
      "outputs": [
        {
          "internalType": "address",
          "name": "",
          "type": "address"
        }
      ],
      "stateMutability": "view",
      "type": "function"
    },
    {
      "inputs": [
        {
          "internalType": "uint256",
          "name": "buildingId",
          "type": "uint256"
        }
      ],
      "name": "releaseMilestoneFunds",
      "outputs": [],
      "stateMutability": "nonpayable",
      "type": "function"
    },
    {
      "inputs": [],
      "name": "renounceOwnership",
      "outputs": [],
      "stateMutability": "nonpayable",
      "type": "function"
    },
    {
      "inputs": [
        {
          "internalType": "address",
          "name": "newOwner",
          "type": "address"
        }
      ],
      "name": "transferOwnership",
      "outputs": [],
      "stateMutability": "nonpayable",
      "type": "function"
    },
    {
      "inputs": [],
      "name": "usdcToken",
      "outputs": [
        {
          "internalType": "address",
          "name": "",
          "type": "address"
        }
      ],
      "stateMutability": "view",
      "type": "function"
    }
  ],
  "bytecode": "0x60c060405234801561000f575f5ffd5b50604051612d32380380612d3283398181016040528101906100319190610324565b825f73ffffffffffffffffffffffffffffffffffffffff168173ffffffffffffffffffffffffffffffffffffffff16036100a2575f6040517f1e4fbdf70000000000000000000000000000000000000000000000000000000081526004016100999190610383565b60405180910390fd5b6100b18161020560201b60201c565b50600180819055505f73ffffffffffffffffffffffffffffffffffffffff168273ffffffffffffffffffffffffffffffffffffffff1603610127576040517f08c379a000000000000000000000000000000000000000000000000000000000815260040161011e9061041c565b60405180910390fd5b5f73ffffffffffffffffffffffffffffffffffffffff168173ffffffffffffffffffffffffffffffffffffffff1603610195576040517f08c379a000000000000000000000000000000000000000000000000000000000815260040161018c906104aa565b60405180910390fd5b8173ffffffffffffffffffffffffffffffffffffffff1660808173ffffffffffffffffffffffffffffffffffffffff16815250508073ffffffffffffffffffffffffffffffffffffffff1660a08173ffffffffffffffffffffffffffffffffffffffff16815250505050506104c8565b5f5f5f9054906101000a900473ffffffffffffffffffffffffffffffffffffffff169050815f5f6101000a81548173ffffffffffffffffffffffffffffffffffffffff021916908373ffffffffffffffffffffffffffffffffffffffff1602179055508173ffffffffffffffffffffffffffffffffffffffff168173ffffffffffffffffffffffffffffffffffffffff167f8be0079c531659141344cd1fd0a4f28419497f9722a3daafe3b4186f6b6457e060405160405180910390a35050565b5f5ffd5b5f73ffffffffffffffffffffffffffffffffffffffff82169050919050565b5f6102f3826102ca565b9050919050565b610303816102e9565b811461030d575f5ffd5b50565b5f8151905061031e816102fa565b92915050565b5f5f5f6060848603121561033b5761033a6102c6565b5b5f61034886828701610310565b935050602061035986828701610310565b925050604061036a86828701610310565b9150509250925092565b61037d816102e9565b82525050565b5f6020820190506103965f830184610374565b92915050565b5f82825260208201905092915050565b7f457363726f774d616e616765723a206275696c64696e675265676973747279205f8201527f63616e6e6f74206265207a65726f206164647265737300000000000000000000602082015250565b5f61040660368361039c565b9150610411826103ac565b604082019050919050565b5f6020820190508181035f830152610433816103fa565b9050919050565b7f457363726f774d616e616765723a2075736463546f6b656e2063616e6e6f74205f8201527f6265207a65726f20616464726573730000000000000000000000000000000000602082015250565b5f610494602f8361039c565b915061049f8261043a565b604082019050919050565b5f6020820190508181035f8301526104c181610488565b9050919050565b60805160a05161281f6105135f395f818161030f0152818161077301528181610b8f01526110ff01525f81816103ee015281816107460152818161099f0152610e6a015261281f5ff3fe608060405234801561000f575f5ffd5b50600436106100cd575f3560e01c806361638ed51161008a5780638da5cb5b116100645780638da5cb5b14610205578063a2e54d7514610223578063dad0a43d1461023f578063f2fde38b1461026f576100cd565b806361638ed5146101ab578063715018a6146101c75780638646405e146101d1576100cd565b8063012f52ee146100d157806311eac855146101075780631796803a146101255780632fdf6d49146101415780635312ea8e1461015f578063595063401461017b575b5f5ffd5b6100eb60048036038101906100e6919061157e565b61028b565b6040516100fe979695949392919061162c565b60405180910390f35b61010f61030d565b60405161011c9190611699565b60405180910390f35b61013f600480360381019061013a919061182c565b610331565b005b610149610744565b60405161015691906118f3565b60405180910390f35b6101796004803603810190610174919061157e565b610768565b005b6101956004803603810190610190919061157e565b610936565b6040516101a2919061190c565b60405180910390f35b6101c560048036038101906101c09190611925565b610ae2565b005b6101cf610cf2565b005b6101eb60048036038101906101e6919061157e565b610d05565b6040516101fc959493929190611963565b60405180910390f35b61020d610dd3565b60405161021a9190611699565b60405180910390f35b61023d6004803603810190610238919061157e565b610dfa565b005b610259600480360381019061025491906119de565b611290565b604051610266919061190c565b60405180910390f35b61028960048036038101906102849190611a1c565b611318565b005b6002602052805f5260405f205f91509050805f015490806001015f9054906101000a900473ffffffffffffffffffffffffffffffffffffffff1690806002015490806003015490806004015f9054906101000a900460ff16908060040160019054906101000a900460ff1690806006015f9054906101000a900460ff16905087565b7f000000000000000000000000000000000000000000000000000000000000000081565b61033961139c565b5f73ffffffffffffffffffffffffffffffffffffffff168273ffffffffffffffffffffffffffffffffffffffff16036103a7576040517f08c379a000000000000000000000000000000000000000000000000000000000815260040161039e90611ac7565b60405180910390fd5b5f8151116103ea576040517f08c379a00000000000000000000000000000000000000000000000000000000081526004016103e190611b55565b60405180910390fd5b5f5f7f000000000000000000000000000000000000000000000000000000000000000073ffffffffffffffffffffffffffffffffffffffff16639dfd8b02866040518263ffffffff1660e01b8152600401610445919061190c565b5f60405180830381865afa15801561045f573d5f5f3e3d5ffd5b505050506040513d5f823e3d601f19601f820116820180604052508101906104879190611cac565b995050985050505050505050806104d3576040517f08c379a00000000000000000000000000000000000000000000000000000000081526004016104ca90611e2d565b60405180910390fd5b8160ff16835114610519576040517f08c379a000000000000000000000000000000000000000000000000000000000815260040161051090611ee1565b60405180910390fd5b5f60025f8781526020019081526020015f209050806006015f9054906101000a900460ff161561057e576040517f08c379a000000000000000000000000000000000000000000000000000000000815260040161057590611f6f565b60405180910390fd5b85815f018190555084816001015f6101000a81548173ffffffffffffffffffffffffffffffffffffffff021916908373ffffffffffffffffffffffffffffffffffffffff1602179055508351816004015f6101000a81548160ff021916908360ff1602179055505f8160040160016101000a81548160ff021916908360ff1602179055506001816006015f6101000a81548160ff0219169083151502179055505f5f90505b84518160ff1610156106dc575f858260ff168151811061064657610645611f8d565b5b60200260200101511161068e576040517f08c379a00000000000000000000000000000000000000000000000000000000081526004016106859061202a565b60405180910390fd5b848160ff16815181106106a4576106a3611f8d565b5b6020026020010151826005015f8360ff1660ff1681526020019081526020015f208190555080806106d490612075565b915050610623565b508473ffffffffffffffffffffffffffffffffffffffff16867f252d28e68e99f09af4181bd73238f2d6e47952f79777a0e274fa22195699a792836004015f9054906101000a900460ff16604051610734919061209d565b60405180910390a3505050505050565b7f000000000000000000000000000000000000000000000000000000000000000081565b61077061139c565b5f7f000000000000000000000000000000000000000000000000000000000000000090505f8173ffffffffffffffffffffffffffffffffffffffff166370a08231306040518263ffffffff1660e01b81526004016107ce9190611699565b602060405180830381865afa1580156107e9573d5f5f3e3d5ffd5b505050506040513d601f19601f8201168201806040525081019061080d91906120b6565b90505f5f841461081d578361081f565b815b90505f811180156108305750818111155b61086f576040517f08c379a000000000000000000000000000000000000000000000000000000000815260040161086690612151565b60405180910390fd5b8273ffffffffffffffffffffffffffffffffffffffff1663a9059cbb610893610dd3565b836040518363ffffffff1660e01b81526004016108b192919061216f565b6020604051808303815f875af11580156108cd573d5f5f3e3d5ffd5b505050506040513d601f19601f820116820180604052508101906108f19190612196565b610930576040517f08c379a000000000000000000000000000000000000000000000000000000000815260040161092790612231565b60405180910390fd5b50505050565b5f5f60025f8481526020019081526020015f209050806006015f9054906101000a900460ff1661099b576040517f08c379a0000000000000000000000000000000000000000000000000000000008152600401610992906122bf565b60405180910390fd5b5f5f7f000000000000000000000000000000000000000000000000000000000000000073ffffffffffffffffffffffffffffffffffffffff16639dfd8b02866040518263ffffffff1660e01b81526004016109f6919061190c565b5f60405180830381865afa158015610a10573d5f5f3e3d5ffd5b505050506040513d5f823e3d601f19601f82011682018060405250810190610a389190611cac565b995099505050505050505050801580610a6857508260040160019054906101000a900460ff1660ff168260ff1611155b15610a78575f9350505050610add565b5f5f90505f8460040160019054906101000a900460ff1690505b8360ff168160ff161015610ad457846005015f8260ff1660ff1681526020019081526020015f205482610ac591906122dd565b91508080600101915050610a92565b50809450505050505b919050565b610aea611423565b5f8111610b2c576040517f08c379a0000000000000000000000000000000000000000000000000000000008152600401610b2390612380565b60405180910390fd5b60025f8381526020019081526020015f206006015f9054906101000a900460ff16610b8c576040517f08c379a0000000000000000000000000000000000000000000000000000000008152600401610b839061240e565b60405180910390fd5b5f7f000000000000000000000000000000000000000000000000000000000000000090508073ffffffffffffffffffffffffffffffffffffffff166323b872dd3330856040518463ffffffff1660e01b8152600401610bed9392919061242c565b6020604051808303815f875af1158015610c09573d5f5f3e3d5ffd5b505050506040513d601f19601f82011682018060405250810190610c2d9190612196565b610c6c576040517f08c379a0000000000000000000000000000000000000000000000000000000008152600401610c63906124d1565b60405180910390fd5b8160025f8581526020019081526020015f206002015f828254610c8f91906122dd565b925050819055503373ffffffffffffffffffffffffffffffffffffffff16837fe030e47e27825a2ad1b19e4cf2e70bfbfb3124af275c7727a82b114ba7b29a8584604051610cdd919061190c565b60405180910390a350610cee611469565b5050565b610cfa61139c565b610d035f611472565b565b5f5f5f5f5f5f60025f8881526020019081526020015f209050806006015f9054906101000a900460ff16610d6e576040517f08c379a0000000000000000000000000000000000000000000000000000000008152600401610d65906122bf565b60405180910390fd5b806002015481600301548260040160019054906101000a900460ff16836004015f9054906101000a900460ff16846001015f9054906101000a900473ffffffffffffffffffffffffffffffffffffffff16955095509550955095505091939590929450565b5f5f5f9054906101000a900473ffffffffffffffffffffffffffffffffffffffff16905090565b610e02611423565b5f60025f8381526020019081526020015f209050806006015f9054906101000a900460ff16610e66576040517f08c379a0000000000000000000000000000000000000000000000000000000008152600401610e5d906122bf565b60405180910390fd5b5f5f7f000000000000000000000000000000000000000000000000000000000000000073ffffffffffffffffffffffffffffffffffffffff16639dfd8b02856040518263ffffffff1660e01b8152600401610ec1919061190c565b5f60405180830381865afa158015610edb573d5f5f3e3d5ffd5b505050506040513d5f823e3d601f19601f82011682018060405250810190610f039190611cac565b99509950505050505050505080610f4f576040517f08c379a0000000000000000000000000000000000000000000000000000000008152600401610f4690611e2d565b60405180910390fd5b5f8360040160019054906101000a900460ff1690508060ff168360ff1611610fac576040517f08c379a0000000000000000000000000000000000000000000000000000000008152600401610fa39061255f565b60405180910390fd5b836004015f9054906101000a900460ff1660ff168160ff1610611004576040517f08c379a0000000000000000000000000000000000000000000000000000000008152600401610ffb906125ed565b60405180910390fd5b5f846005015f8360ff1660ff1681526020019081526020015f205490505f8111611063576040517f08c379a000000000000000000000000000000000000000000000000000000000815260040161105a9061267b565b60405180910390fd5b80856003015461107391906122dd565b856002015410156110b9576040517f08c379a00000000000000000000000000000000000000000000000000000000081526004016110b090612709565b60405180910390fd5b6001826110c69190612727565b8560040160016101000a81548160ff021916908360ff16021790555080856003015f8282546110f591906122dd565b925050819055505f7f000000000000000000000000000000000000000000000000000000000000000090508073ffffffffffffffffffffffffffffffffffffffff1663a9059cbb876001015f9054906101000a900473ffffffffffffffffffffffffffffffffffffffff16846040518363ffffffff1660e01b815260040161117e92919061216f565b6020604051808303815f875af115801561119a573d5f5f3e3d5ffd5b505050506040513d601f19601f820116820180604052508101906111be9190612196565b6111fd576040517f08c379a00000000000000000000000000000000000000000000000000000000081526004016111f4906127cb565b60405180910390fd5b856001015f9054906101000a900473ffffffffffffffffffffffffffffffffffffffff1673ffffffffffffffffffffffffffffffffffffffff166001846112449190612727565b60ff16887f40c7136553f7cfa69308a35187fc89873f53cdd36fdc09b3cfb68d43cb0b96a685604051611277919061190c565b60405180910390a450505050505061128d611469565b50565b5f5f60025f8581526020019081526020015f209050806006015f9054906101000a900460ff166112f5576040517f08c379a00000000000000000000000000000000000000000000000000000000081526004016112ec906122bf565b60405180910390fd5b806005015f8460ff1660ff1681526020019081526020015f205491505092915050565b61132061139c565b5f73ffffffffffffffffffffffffffffffffffffffff168173ffffffffffffffffffffffffffffffffffffffff1603611390575f6040517f1e4fbdf70000000000000000000000000000000000000000000000000000000081526004016113879190611699565b60405180910390fd5b61139981611472565b50565b6113a4611533565b73ffffffffffffffffffffffffffffffffffffffff166113c2610dd3565b73ffffffffffffffffffffffffffffffffffffffff1614611421576113e5611533565b6040517f118cdaa70000000000000000000000000000000000000000000000000000000081526004016114189190611699565b60405180910390fd5b565b60026001540361145f576040517f3ee5aeb500000000000000000000000000000000000000000000000000000000815260040160405180910390fd5b6002600181905550565b60018081905550565b5f5f5f9054906101000a900473ffffffffffffffffffffffffffffffffffffffff169050815f5f6101000a81548173ffffffffffffffffffffffffffffffffffffffff021916908373ffffffffffffffffffffffffffffffffffffffff1602179055508173ffffffffffffffffffffffffffffffffffffffff168173ffffffffffffffffffffffffffffffffffffffff167f8be0079c531659141344cd1fd0a4f28419497f9722a3daafe3b4186f6b6457e060405160405180910390a35050565b5f33905090565b5f604051905090565b5f5ffd5b5f5ffd5b5f819050919050565b61155d8161154b565b8114611567575f5ffd5b50565b5f8135905061157881611554565b92915050565b5f6020828403121561159357611592611543565b5b5f6115a08482850161156a565b91505092915050565b6115b28161154b565b82525050565b5f73ffffffffffffffffffffffffffffffffffffffff82169050919050565b5f6115e1826115b8565b9050919050565b6115f1816115d7565b82525050565b5f60ff82169050919050565b61160c816115f7565b82525050565b5f8115159050919050565b61162681611612565b82525050565b5f60e08201905061163f5f83018a6115a9565b61164c60208301896115e8565b61165960408301886115a9565b61166660608301876115a9565b6116736080830186611603565b61168060a0830185611603565b61168d60c083018461161d565b98975050505050505050565b5f6020820190506116ac5f8301846115e8565b92915050565b6116bb816115d7565b81146116c5575f5ffd5b50565b5f813590506116d6816116b2565b92915050565b5f5ffd5b5f601f19601f8301169050919050565b7f4e487b71000000000000000000000000000000000000000000000000000000005f52604160045260245ffd5b611726826116e0565b810181811067ffffffffffffffff82111715611745576117446116f0565b5b80604052505050565b5f61175761153a565b9050611763828261171d565b919050565b5f67ffffffffffffffff821115611782576117816116f0565b5b602082029050602081019050919050565b5f5ffd5b5f6117a96117a484611768565b61174e565b905080838252602082019050602084028301858111156117cc576117cb611793565b5b835b818110156117f557806117e1888261156a565b8452602084019350506020810190506117ce565b5050509392505050565b5f82601f830112611813576118126116dc565b5b8135611823848260208601611797565b91505092915050565b5f5f5f6060848603121561184357611842611543565b5b5f6118508682870161156a565b9350506020611861868287016116c8565b925050604084013567ffffffffffffffff81111561188257611881611547565b5b61188e868287016117ff565b9150509250925092565b5f819050919050565b5f6118bb6118b66118b1846115b8565b611898565b6115b8565b9050919050565b5f6118cc826118a1565b9050919050565b5f6118dd826118c2565b9050919050565b6118ed816118d3565b82525050565b5f6020820190506119065f8301846118e4565b92915050565b5f60208201905061191f5f8301846115a9565b92915050565b5f5f6040838503121561193b5761193a611543565b5b5f6119488582860161156a565b92505060206119598582860161156a565b9150509250929050565b5f60a0820190506119765f8301886115a9565b61198360208301876115a9565b6119906040830186611603565b61199d6060830185611603565b6119aa60808301846115e8565b9695505050505050565b6119bd816115f7565b81146119c7575f5ffd5b50565b5f813590506119d8816119b4565b92915050565b5f5f604083850312156119f4576119f3611543565b5b5f611a018582860161156a565b9250506020611a12858286016119ca565b9150509250929050565b5f60208284031215611a3157611a30611543565b5b5f611a3e848285016116c8565b91505092915050565b5f82825260208201905092915050565b7f457363726f774d616e616765723a20646576656c6f7065722063616e6e6f74205f8201527f6265207a65726f20616464726573730000000000000000000000000000000000602082015250565b5f611ab1602f83611a47565b9150611abc82611a57565b604082019050919050565b5f6020820190508181035f830152611ade81611aa5565b9050919050565b7f457363726f774d616e616765723a206d7573742068617665206174206c6561735f8201527f74206f6e65206d696c6573746f6e650000000000000000000000000000000000602082015250565b5f611b3f602f83611a47565b9150611b4a82611ae5565b604082019050919050565b5f6020820190508181035f830152611b6c81611b33565b9050919050565b5f81519050611b8181611554565b92915050565b5f5ffd5b5f67ffffffffffffffff821115611ba557611ba46116f0565b5b611bae826116e0565b9050602081019050919050565b8281835e5f83830152505050565b5f611bdb611bd684611b8b565b61174e565b905082815260208101848484011115611bf757611bf6611b87565b5b611c02848285611bbb565b509392505050565b5f82601f830112611c1e57611c1d6116dc565b5b8151611c2e848260208601611bc9565b91505092915050565b5f81519050611c45816116b2565b92915050565b60048110611c57575f5ffd5b50565b5f81519050611c6881611c4b565b92915050565b5f81519050611c7c816119b4565b92915050565b611c8b81611612565b8114611c95575f5ffd5b50565b5f81519050611ca681611c82565b92915050565b5f5f5f5f5f5f5f5f5f5f6101408b8d031215611ccb57611cca611543565b5b5f611cd88d828e01611b73565b9a505060208b015167ffffffffffffffff811115611cf957611cf8611547565b5b611d058d828e01611c0a565b99505060408b015167ffffffffffffffff811115611d2657611d25611547565b5b611d328d828e01611c0a565b9850506060611d438d828e01611c37565b9750506080611d548d828e01611c37565b96505060a0611d658d828e01611c37565b95505060c0611d768d828e01611c5a565b94505060e0611d878d828e01611c6e565b935050610100611d998d828e01611c6e565b925050610120611dab8d828e01611c98565b9150509295989b9194979a5092959850565b7f457363726f774d616e616765723a206275696c64696e6720646f6573206e6f745f8201527f2065786973740000000000000000000000000000000000000000000000000000602082015250565b5f611e17602683611a47565b9150611e2282611dbd565b604082019050919050565b5f6020820190508181035f830152611e4481611e0b565b9050919050565b7f457363726f774d616e616765723a206d696c6573746f6e6520616d6f756e74735f8201527f206c656e677468206d757374206d61746368206275696c64696e6720746f746160208201527f6c4d696c6573746f6e6573000000000000000000000000000000000000000000604082015250565b5f611ecb604b83611a47565b9150611ed682611e4b565b606082019050919050565b5f6020820190508181035f830152611ef881611ebf565b9050919050565b7f457363726f774d616e616765723a20657363726f7720616c726561647920636f5f8201527f6e6669677572656420666f722074686973206275696c64696e67000000000000602082015250565b5f611f59603a83611a47565b9150611f6482611eff565b604082019050919050565b5f6020820190508181035f830152611f8681611f4d565b9050919050565b7f4e487b71000000000000000000000000000000000000000000000000000000005f52603260045260245ffd5b7f457363726f774d616e616765723a206d696c6573746f6e6520616d6f756e74205f8201527f6d757374206265203e2030000000000000000000000000000000000000000000602082015250565b5f612014602b83611a47565b915061201f82611fba565b604082019050919050565b5f6020820190508181035f83015261204181612008565b9050919050565b7f4e487b71000000000000000000000000000000000000000000000000000000005f52601160045260245ffd5b5f61207f826115f7565b915060ff820361209257612091612048565b5b600182019050919050565b5f6020820190506120b05f830184611603565b92915050565b5f602082840312156120cb576120ca611543565b5b5f6120d884828501611b73565b91505092915050565b7f457363726f774d616e616765723a20696e76616c6964207769746864726177615f8201527f6c20616d6f756e74000000000000000000000000000000000000000000000000602082015250565b5f61213b602883611a47565b9150612146826120e1565b604082019050919050565b5f6020820190508181035f8301526121688161212f565b9050919050565b5f6040820190506121825f8301856115e8565b61218f60208301846115a9565b9392505050565b5f602082840312156121ab576121aa611543565b5b5f6121b884828501611c98565b91505092915050565b7f457363726f774d616e616765723a207769746864726177616c207472616e73665f8201527f6572206661696c65640000000000000000000000000000000000000000000000602082015250565b5f61221b602983611a47565b9150612226826121c1565b604082019050919050565b5f6020820190508181035f8301526122488161220f565b9050919050565b7f457363726f774d616e616765723a20657363726f77206e6f7420636f6e6669675f8201527f7572656400000000000000000000000000000000000000000000000000000000602082015250565b5f6122a9602483611a47565b91506122b48261224f565b604082019050919050565b5f6020820190508181035f8301526122d68161229d565b9050919050565b5f6122e78261154b565b91506122f28361154b565b925082820190508082111561230a57612309612048565b5b92915050565b7f457363726f774d616e616765723a20616d6f756e74206d757374206265203e205f8201527f3000000000000000000000000000000000000000000000000000000000000000602082015250565b5f61236a602183611a47565b915061237582612310565b604082019050919050565b5f6020820190508181035f8301526123978161235e565b9050919050565b7f457363726f774d616e616765723a20657363726f77206e6f7420636f6e6669675f8201527f7572656420666f722074686973206275696c64696e6700000000000000000000602082015250565b5f6123f8603683611a47565b91506124038261239e565b604082019050919050565b5f6020820190508181035f830152612425816123ec565b9050919050565b5f60608201905061243f5f8301866115e8565b61244c60208301856115e8565b61245960408301846115a9565b949350505050565b7f457363726f774d616e616765723a2055534443207472616e73666572206661695f8201527f6c65640000000000000000000000000000000000000000000000000000000000602082015250565b5f6124bb602383611a47565b91506124c682612461565b604082019050919050565b5f6020820190508181035f8301526124e8816124af565b9050919050565b7f457363726f774d616e616765723a206e6f206e6577206d696c6573746f6e65735f8201527f20617661696c61626c6520746f2072656c656173650000000000000000000000602082015250565b5f612549603583611a47565b9150612554826124ef565b604082019050919050565b5f6020820190508181035f8301526125768161253d565b9050919050565b7f457363726f774d616e616765723a20616c6c206d696c6573746f6e65732068615f8201527f7665206265656e2072656c656173656400000000000000000000000000000000602082015250565b5f6125d7603083611a47565b91506125e28261257d565b604082019050919050565b5f6020820190508181035f830152612604816125cb565b9050919050565b7f457363726f774d616e616765723a206d696c6573746f6e652072656c656173655f8201527f20616d6f756e74206973207a65726f0000000000000000000000000000000000602082015250565b5f612665602f83611a47565b91506126708261260b565b604082019050919050565b5f6020820190508181035f83015261269281612659565b9050919050565b7f457363726f774d616e616765723a20696e73756666696369656e7420657363725f8201527f6f7765642066756e647300000000000000000000000000000000000000000000602082015250565b5f6126f3602a83611a47565b91506126fe82612699565b604082019050919050565b5f6020820190508181035f830152612720816126e7565b9050919050565b5f612731826115f7565b915061273c836115f7565b9250828201905060ff81111561275557612754612048565b5b92915050565b7f457363726f774d616e616765723a2055534443207472616e7366657220746f205f8201527f646576656c6f706572206661696c656400000000000000000000000000000000602082015250565b5f6127b5603083611a47565b91506127c08261275b565b604082019050919050565b5f6020820190508181035f8301526127e2816127a9565b905091905056fea2646970667358221220fabce7d0fc0100bf1e1ab19d788f69cfa3404fdd89468e65fc5346f8cb885e9264736f6c634300081c0033",
  "linkReferences": {},
  "deployedLinkReferences": {},
  "immutableReferences": {
    "339": [
      {
        "length": 32,
        "start": 1006
      },
      {
        "length": 32,
        "start": 1862
      },
      {
        "length": 32,
        "start": 2463
      },
      {
        "length": 32,
        "start": 3690
      }
    ],
    "342": [
      {
        "length": 32,
        "start": 783
      },
      {
        "length": 32,
        "start": 1907
      },
      {
        "length": 32,
        "start": 2959
      },
      {
        "length": 32,
        "start": 4351
      }
    ]
  },
  "inputSourceName": "project/contracts/EscrowManager.sol",
  "buildInfoId": "solc-0_8_28-49ef390f3927ef7b5e3d33b66b9afda3f66dd33d"
}